:100000000C9463000C948B000C948B000C948B006C
:100010000C948B000C948B000C948B000C948B0034
:100020000C948B000C948B000C948B000C948B0024
:100030000C948B000C948B000C948B000C948B0014
:100040000C94B6020C948B000C948B000C948B00D7
:100050000C948B000C948B000C948B000C948B00F4
:100060000C948B000C948B000000000024002700EF
:100070002A0000000000250028002B0000000000DE
:1000800023002600290004040404040404040202DA
:100090000202020203030303030301020408102007
:1000A0004080010204081020010204081020000012
:1000B0000008000201000003040700000000000027
:1000C0000000DA033A0411241FBECFEFD8E0DEBFF0
:1000D000CDBF21E0A4E1B1E001C01D92A134B2077F
:1000E000E1F711E0A0E0B1E0E8E6FDE002C0059034
:1000F0000D92A431B107D9F710E0C2E6D0E004C0F8
:100100002197FE010E94AF04C136D107C9F70E94B2
:1001100000030C94A7060C940000AF92BF92CF92FC
:10012000DF92EF92FF920F931F93CF93DF936C01B7
:100130007B018B01040F151FEB015E01AE18BF0898
:10014000C017D10759F06991D601ED91FC9101904A
:10015000F081E02DC6010995892B79F7C501DF9162
:10016000CF911F910F91FF90EF90DF90CF90BF90B4
:10017000AF900895833081F028F4813099F0823077
:10018000A9F008958730A9F08830C9F08430B1F41F
:10019000809180008F7D03C0809180008F77809355
:1001A0008000089584B58F7784BD089584B58F7DD0
:1001B000FBCF8091B0008F778093B000089580913D
:1001C000B0008F7DF9CF1F93CF93DF93282F30E0BE
:1001D000F901E255FF4F8491F901E656FF4FD491A2
:1001E000F901EA57FF4FC491CC23A9F0162F8111D2
:1001F0000E94BA00EC2FF0E0EE0FFF1FEE58FF4F09
:10020000A591B4918FB7F894EC91111108C0D095D5
:10021000DE23DC938FBFDF91CF911F910895DE2BFA
:10022000F8CFCF93DF9390E0FC01E656FF4F249187
:100230008A579F4FFC0184918823D1F090E0880F6A
:10024000991FFC01E859FF4FA591B491FC01EE58AC
:10025000FF4FC591D49161110EC09FB7F8948C9156
:10026000E22FE0958E238C932881E223E8839FBFC1
:10027000DF91CF9108958FB7F894EC91E22BEC9336
:100280008FBFF6CF089590E080E008950F931F93FD
:10029000CF93DF93EC0188819981009759F02A81EF
:1002A0003B812617370730F081E0DF91CF911F9116
:1002B0000F9108958B016F5F7F4F0E94DA050097C1
:1002C00059F0998388831B830A832C813D81232BDA
:1002D00059F7FC011082E8CF80E0E7CFCF93DF939E
:1002E000EC0160E08E810E94E30061E08E810E945B
:1002F000E30060E08E810E94E3008BE891E00197CB
:10030000F1F7DF91CF910895CF92DF92EF92FF92B4
:100310000F931F93CF93DF936C017C0187E0E80E6E
:10032000F11CD0E0C0E0062F10E0B8010C2E02C096
:10033000759567950A94E2F76170F70181917F01E5
:100340000E94E3002196C430D10579F7C601DF9100
:10035000CF911F910F91FF90EF90DF90CF900C9471
:100360006E01CF92DF92EF92FF920F931F93CF9384
:10037000DF93EC01F62E642F8C810E94E3008D81C7
:100380008F3F19F060E00E94E3000F2D10E08F8591
:1003900084FF25C06E0187E0C80ED11CF12CE12C32
:1003A000B8010E2C02C0759567950A94E2F761704A
:1003B000F60181916F010E94E300FFEFEF1AFF0A3F
:1003C00088E0E816F10461F7CE01DF91CF911F912B
:1003D0000F91FF90EF90DF90CF900C946E01B801D9
:1003E00084E0759567958A95E1F7CE010E948401B6
:1003F0006F2DCE01DF91CF911F910F91FF90EF9064
:10040000DF90CF900C94840140E0682F85E291E06A
:100410000C94B101CF93DF93823029F49091340191
:10042000986090933401809338011092390180E4F0
:1004300080933A0180E180933B0180E580933C0109
:1004400061E0809129010E94110180912A018F3F72
:1004500019F061E00E94110161E080912B010E947E
:100460001101C5E2D1E09E01255231408091340155
:1004700084FD0BC084E090E021962817390744F4EE
:1004800061E08E810E941101EECF88E090E0F4CF10
:100490008BE39DE00197F1F760E0809129010E94D4
:1004A000E30060E080912B010E94E30080912A012B
:1004B0008F3F19F060E00E94E3008091340184FDD9
:1004C00039C063E085E291E00E948401CBE4D6E488
:1004D000CE010197F1F763E085E291E00E9484018B
:1004E0002197F1F763E085E291E00E94840183E5C2
:1004F00092E00197F1F762E085E291E00E948401C9
:100500008091340180620E94040284E0809335016E
:100510008CE00E94040281E00E9404028BE39FE1D0
:100520000197F1F782E08093360186E0DF91CF9169
:100530000C94040280620E9404028BE496E401970A
:10054000F1F78091340180620E94040283E592E019
:100550000197F1F78091340180620E940402D0CFAC
:1005600041E00E94B10181E090E008951F920F9256
:100570000FB60F9211242F933F938F939F93AF93B6
:10058000BF9380911F0190912001A0912101B09112
:10059000220130911E0123E0230F2D3758F50196DB
:1005A000A11DB11D20931E0180931F019093200176
:1005B000A0932101B093220180911A0190911B0117
:1005C000A0911C01B0911D010196A11DB11D809348
:1005D0001A0190931B01A0931C01B0931D01BF91C0
:1005E000AF919F918F913F912F910F900FBE0F90E0
:1005F0001F90189526E8230F0296A11DB11DD2CF9A
:10060000CF93DF93CDB7DEB768970FB6F894DEBF10
:100610000FBECDBF789484B5826084BD84B58160FF
:1006200084BD85B5826085BD85B5816085BD8091BD
:100630006E00816080936E00109281008091810035
:10064000826080938100809181008160809381002D
:10065000809180008160809380008091B1008460EF
:100660008093B1008091B00081608093B000809150
:100670007A00846080937A0080917A00826080930F
:100680007A0080917A00816080937A0080917A006C
:10069000806880937A001092C10060E080E00E9440
:1006A000110182E00E940A02E1E08091380181118B
:1006B000E0E0E195F0E0EB5DFE4F848980680E9408
:1006C00004029EEA692E90E0792E2AE9C22E20E0EB
:1006D000D22E36E8A32E30E0B32ECE0101967C0157
:1006E00040E0842E40E0942EF3018491F6011491B1
:1006F000F50104910023B9F081110E94BA00E02FA6
:10070000F0E0EE0FFF1FE458FF4FA591B4918C91DC
:10071000182349F080912301909124010196909330
:1007200024018093230180912301909124011C8A4C
:100730001B8A1E8A1D8A188E1F8A4AE0B7010E94F2
:100740004304F70101900020E9F731978F010E195A
:100750001F09B801CE0143960E9446012B893C89AE
:10076000811121C02115310519F0C9010E945105DF
:100770001C8A1B8A188E1F8A1E8A1D8A4F89588DD3
:100780006B897C8985E291E00E948D008B899C8930
:10079000009711F00E9451058114910409F4A4CF2F
:1007A0000E940000A1CF188F0F8BB701C9010E94D2
:1007B000A006E4CF109215011092140110921701B7
:1007C00010921601109219011092180170E060E069
:1007D00084E191E00E9446012091140130911501BD
:1007E00081113EC02115310519F0C9010E94510542
:1007F0001092150110921401109219011092180113
:1008000010921701109216011092280110922701E0
:100810008AE091E0909326018093250186E0809301
:1008200029018FEF80932A0187E080932B0188E0D4
:1008300080932C0189E080932D018AE080932E0122
:100840008BE080932F0110923001109231011092B1
:100850003201109233011092340181E00C940A02AB
:10086000109219011092180162E171E0C9010E9411
:10087000A006CACF8091140190911501009711F044
:100880000C9451050895BB274A3031F4992322F482
:10089000BDE2909581959F4F0C944F04BB27FB01BF
:1008A0005527AA27880F991FAA1FA41710F0A41B69
:1008B00083955051B9F7A05DAA3308F0A95DA193C3
:1008C000009779F7B111B1931192CB010C946804A0
:1008D000DC01FC01672F71917723E1F7329704C0A7
:1008E0007C916D9370836291AE17BF07C8F3089532
:1008F0002F923F924F925F926F927F928F929F9230
:10090000AF92BF92CF92DF92EF92FF920F931F931D
:10091000CF93DF93CDB7DEB7CA1BDB0B0FB6F894CE
:10092000DEBF0FBECDBF09942A88398848885F840E
:100930006E847D848C849B84AA84B984C884DF807F
:10094000EE80FD800C811B81AA81B981CE0FD11D63
:100950000FB6F894DEBF0FBECDBFED010895EE0FC8
:10096000FF1F0590F491E02D09940F931F93CF93EF
:10097000DF938230910510F482E090E0E0913F0136
:10098000F091400130E020E0B0E0A0E0309799F431
:100990002115310509F44AC0281B390B24303105D3
:1009A000D8F58A819B816115710589F1FB019383DB
:1009B0008283FE0111C04081518102811381481759
:1009C0005907E0F04817590799F4109761F012960B
:1009D0000C93129713961C933296CF01DF91CF910F
:1009E0001F910F91089500933F0110934001F4CFA0
:1009F0002115310551F04217530738F0A901DB01E9
:100A00009A01BD01DF01F801C1CFEF01F9CF909349
:100A1000400180933F01CDCFFE01E20FF31F819390
:100A200091932250310939832883D7CF20913D01FA
:100A300030913E01232B41F42091020130910301BA
:100A400030933E0120933D0120910001309101013E
:100A50002115310541F42DB73EB740910401509165
:100A60000501241B350BE0913D01F0913E01E21799
:100A7000F307A0F42E1B3F0B2817390778F0AC01C1
:100A80004E5F5F4F2417350748F04E0F5F1F50939E
:100A90003E0140933D01819391939FCFF0E0E0E0D0
:100AA0009CCFCF93DF930097E9F0FC01329713823C
:100AB0001282A0913F01B0914001ED0130E020E0B1
:100AC0001097A1F420813181820F931F20913D0165
:100AD00030913E012817390709F061C0F0933E01BB
:100AE000E0933D01DF91CF910895EA01CE17DF0732
:100AF000E8F54A815B819E0141155105B1F7E90195
:100B0000FB83EA8349915991C40FD51FEC17FD0768
:100B100061F4808191810296840F951FE901998388
:100B20008883828193819B838A83F0E0E0E0129640
:100B30008D919C9113970097B9F52D913C91119748
:100B4000CD010296820F931F20913D0130913E010D
:100B50002817390739F6309751F510924001109255
:100B60003F01B0933E01A0933D01BCCFD383C2832C
:100B700040815181840F951FC817D90761F44E5FDA
:100B80005F4F88819981480F591F518340838A8123
:100B90009B81938382832115310509F0B0CFF093B7
:100BA0004001E0933F019ECFFD01DC01C0CF1382E5
:100BB0001282D7CFB0E0A0E0E0EEF5E00C947A042A
:100BC0008C01009751F4CB010E94B5048C01C8013F
:100BD000CDB7DEB7E0E10C949604FC01E60FF71FF9
:100BE0009C0122503109E217F30708F49DC0D90196
:100BF000CD91DC911197C617D70798F0C530D10574
:100C000030F3CE0104978617970708F3C61BD70B5E
:100C10002297C193D1936D937C93CF010E9451058C
:100C2000D6CF5B01AC1ABD0A4C018C0E9D1EA09163
:100C30003F01B0914001512C412CF12CE12C109737
:100C400031F580913D0190913E018815990509F09B
:100C50005CC04616570608F058C08091000190917C
:100C60000101009741F48DB79EB740910401509166
:100C70000501841B950BE817F90708F055C0F093A0
:100C80003E01E0933D01F90171836083A0CF8D9116
:100C90009C91119712966C90129713967C901397D3
:100CA000A815B90559F56C0142E0C40ED11CCA144F
:100CB000DB0420F1AC014A195B09DA0112961597A1
:100CC00080F06282738251834083D9016D937C935B
:100CD000E114F10471F0D7011396FC93EE9312978F
:100CE00076CF22968C0F9D1FF90191838083F301AB
:100CF000EFCFF0934001E0933F0169CF48165906CA
:100D000008F42C017D01D3019ACFCB010E94B504D8
:100D10007C01009749F0AE01B8010E949706C80116
:100D20000E945105870153CF10E000E050CFFB0136
:100D3000DC0102C001900D9241505040D8F7089557
:100D4000FB01DC0101900D920020E1F7089510E015
:100D5000C2E6D0E004C0FE010E94AF042196C33673
:080D6000D107C9F7F894FFCF99
:100D680000004101800000000000B0028D00430136
:040D78004201000034
:00000001FF
